:020000040000FA
:10000000B201FB28A400B3172730A300103014203E
:100010000330A300E8301420A30164301420A301AE
:100020000A30142024081F28A2002508A100240853
:10003000A000C4202008031DB313B31B0800303EEA
:10004000A7008611861006118316861186100611E8
:100050000F30860583122708B2184C283A30A100C9
:10006000FC3090203330A60060201030A1006830B2
:100070009020602064308F2060202230A600602015
:1000800028304B200C304B2001304B2006304B20C9
:10009000B21427084C283214A600321C5A288610A5
:1000A000033C031C5F285F200730A100D030902064
:1000B000031408003214FE3C0319F6288614321C7F
:1000C000321086150F3086052608F0398604861111
:1000D000A60E3218602832308F2003140800A000CA
:1000E000A00DA00D200D3839C1389F000030A100AF
:1000F000643090201F151F197B281E08A10083164D
:100100001E08F628A301A200FF30A207031CA307C4
:10011000031CF6280330A100DF3090208428A101C1
:10012000E83EA000A109FC30031C9928A007031891
:100130009628A0076400A10F962820189F28A01CCD
:10014000A3280000A3280800A2000130AD28A200C7
:100150000630AD28A2000430AD28A80023082102F3
:10016000031DB428220820020430031801300319AB
:1001700002302805031DFF30F6280038031DFF302C
:100180000405031DFF30F628A501A4011030A600C8
:10019000210DA40DA50D2208A4022308031C230F82
:1001A000A5020318DA282208A40723080318230F3E
:1001B000A5070310A00DA10DA60BC8282008F6283E
:1001C0001030A800A101A001A70CA60C031CEE286A
:1001D0002208A00723080318230FA107A10CA00CD5
:1001E000A50CA40CA80BE4282408F62883130313F9
:1001F00083126400080083160130850086018E306A
:100200009F008312061183160611FE3083128A01A5
:10021000202001308A012020C8308A0182206430E9
:100220008A018220FE308A01202001308A012020AC
:1002300000308A016F20BA002108BB00FE308A011D
:10024000202001308A01202053308A0120204930AB
:100250008A01202043308A01202041308A01202059
:100260004B308A0120204C308A01202049308A01FD
:1002700020204B308A0120203A308A0120203A0881
:10028000A6003B08A700EA30A2000130A3008A01C3
:10029000E020BE002508BF003E08A0003F08A100E6
:1002A000E830A2000330A3008A01C420BE00210868
:1002B000BF003F08A5003E088A01022043308A01A2
:1002C000202064008A111F1961293A08A0003B0808
:1002D000A100A30115308A01A4208A11031D7229EF
:1002E0008A11052A3A08A0003B08A100A301153095
:1002F0008A01A420BE003A08A0003B08A100A30187
:1003000029308A01A720C0003E08840040088A01E5
:10031000BD20C000C1006400400841048A110319D7
:1003200093298A112C2A3A08A0003B08A100A301B6
:100330002A308A01A420BE003A08A0003B08A10090
:10034000A30138308A01A720C0003E08840040087D
:100350008A01BD20C000C1006400400841048A1128
:100360000319B4298A11472A3A08A0003B08A100C2
:10037000A30138308A01A420BE003A08A0003B083F
:10038000A100A3014E308A01A720C0003E088400CE
:1003900040088A01BD20C000C1006400400841043B
:1003A0008A110319D5298A11622A3A08A0003B084C
:1003B000A100A3014E308A01A420BE003A08A0008B
:1003C0003B08A100A30186308A01AA20C0003E0894
:1003D000840040088A01BD20C000C10064004008BC
:1003E00041048A110319F6298A117D2A3A08A000CE
:1003F0003B08A100A30186308A01AA208A11031DAF
:10040000032A8A11A42A8A010F29FE308A0120209A
:10041000C0308A01202043308A0120204F308A01D9
:1004200020204B308A01202020308A0120205330A8
:100430008A0120204F308A01202047308A01202065
:1004400055308A0120204B308A0120208514051563
:10045000851185168A010F29FE308A012020C030BF
:100460008A01202053308A0120204F308A01202029
:1004700047308A01202055308A0120204B308A01E4
:10048000202085140511851185168A010F29FE305B
:100490008A012020C0308A01202049308A01202092
:1004A00044308A01202045308A01202041308A01D1
:1004B00020204C308A0120208510051185118512DD
:1004C0008A010F29FE308A012020C0308A012020B5
:1004D00053308A01202049308A01202043308A018C
:1004E000202041308A0120204B308A0120208514B1
:1004F0000511851585128A010F29FE308A012020F9
:10050000C0308A01202043308A0120204F308A01E8
:1005100020204B308A01202020308A0120205330B7
:100520008A01202049308A01202043308A0120207E
:1005300041308A0120204B308A0120208514051586
:10054000851585128A010F29FE308A012020C030CE
:100550008A01202055308A01202053308A01202032
:1005600054308A01202053308A01202049308A01EA
:1005700020204E308A01202049308A01202052302C
:100580008A01202020308A01202041308A01202049
:1005900053308A01202049308A0120204C308A01C2
:1005A000202044308A01202049308A0120208510F3
:0A05B0000511851185128A010F293B
:02400E006E3F03
:00000001FF
